{
  "contractName": "election",
  "abi": [
    {
      "constant": true,
      "inputs": [
        {
          "name": "",
          "type": "uint256"
        }
      ],
      "name": "fracos1",
      "outputs": [
        {
          "name": "fracoId",
          "type": "uint256"
        },
        {
          "name": "fracname",
          "type": "string"
        },
        {
          "name": "creatorId",
          "type": "bytes"
        },
        {
          "name": "partnerId",
          "type": "bytes"
        }
      ],
      "payable": false,
      "stateMutability": "view",
      "type": "function"
    },
    {
      "constant": true,
      "inputs": [
        {
          "name": "",
          "type": "uint256"
        }
      ],
      "name": "fracosres1",
      "outputs": [
        {
          "name": "fracoId",
          "type": "uint256"
        },
        {
          "name": "validFrom",
          "type": "string"
        },
        {
          "name": "validTill",
          "type": "string"
        },
        {
          "name": "lands",
          "type": "bytes"
        },
        {
          "name": "resource",
          "type": "string"
        },
        {
          "name": "status",
          "type": "string"
        }
      ],
      "payable": false,
      "stateMutability": "view",
      "type": "function"
    },
    {
      "constant": true,
      "inputs": [],
      "name": "candidatesCount",
      "outputs": [
        {
          "name": "",
          "type": "uint256"
        }
      ],
      "payable": false,
      "stateMutability": "view",
      "type": "function"
    },
    {
      "constant": true,
      "inputs": [
        {
          "name": "",
          "type": "uint256"
        }
      ],
      "name": "candidates",
      "outputs": [
        {
          "name": "fid",
          "type": "uint256"
        },
        {
          "name": "fname",
          "type": "string"
        },
        {
          "name": "loc",
          "type": "string"
        },
        {
          "name": "contact",
          "type": "string"
        },
        {
          "name": "aadhar",
          "type": "string"
        },
        {
          "name": "accountAddress",
          "type": "bytes"
        }
      ],
      "payable": false,
      "stateMutability": "view",
      "type": "function"
    },
    {
      "constant": true,
      "inputs": [
        {
          "name": "",
          "type": "uint256"
        }
      ],
      "name": "l1",
      "outputs": [
        {
          "name": "landId",
          "type": "uint256"
        },
        {
          "name": "name",
          "type": "string"
        },
        {
          "name": "totalArea",
          "type": "uint256"
        },
        {
          "name": "farmingArea",
          "type": "uint256"
        },
        {
          "name": "fracoId",
          "type": "bytes"
        },
        {
          "name": "ownerId",
          "type": "bytes"
        }
      ],
      "payable": false,
      "stateMutability": "view",
      "type": "function"
    },
    {
      "constant": true,
      "inputs": [],
      "name": "totalLand",
      "outputs": [
        {
          "name": "",
          "type": "uint256"
        }
      ],
      "payable": false,
      "stateMutability": "view",
      "type": "function"
    },
    {
      "constant": true,
      "inputs": [],
      "name": "totalfraco",
      "outputs": [
        {
          "name": "",
          "type": "uint256"
        }
      ],
      "payable": false,
      "stateMutability": "view",
      "type": "function"
    },
    {
      "constant": true,
      "inputs": [
        {
          "name": "",
          "type": "uint256"
        }
      ],
      "name": "lm",
      "outputs": [
        {
          "name": "landId",
          "type": "uint256"
        },
        {
          "name": "name",
          "type": "string"
        },
        {
          "name": "totalArea",
          "type": "uint256"
        },
        {
          "name": "farmingArea",
          "type": "uint256"
        },
        {
          "name": "fracoId",
          "type": "bytes"
        },
        {
          "name": "ownerId",
          "type": "bytes"
        }
      ],
      "payable": false,
      "stateMutability": "view",
      "type": "function"
    },
    {
      "constant": true,
      "inputs": [
        {
          "name": "",
          "type": "address"
        }
      ],
      "name": "voters",
      "outputs": [
        {
          "name": "",
          "type": "bool"
        }
      ],
      "payable": false,
      "stateMutability": "view",
      "type": "function"
    },
    {
      "constant": true,
      "inputs": [],
      "name": "totalfracoresc",
      "outputs": [
        {
          "name": "",
          "type": "uint256"
        }
      ],
      "payable": false,
      "stateMutability": "view",
      "type": "function"
    },
    {
      "constant": true,
      "inputs": [
        {
          "name": "",
          "type": "uint256"
        }
      ],
      "name": "f",
      "outputs": [
        {
          "name": "fracoId",
          "type": "uint256"
        },
        {
          "name": "fracname",
          "type": "string"
        },
        {
          "name": "creatorId",
          "type": "bytes"
        },
        {
          "name": "partnerId",
          "type": "bytes"
        }
      ],
      "payable": false,
      "stateMutability": "view",
      "type": "function"
    },
    {
      "constant": true,
      "inputs": [],
      "name": "totalUsers",
      "outputs": [
        {
          "name": "",
          "type": "uint256"
        }
      ],
      "payable": false,
      "stateMutability": "view",
      "type": "function"
    },
    {
      "constant": true,
      "inputs": [
        {
          "name": "",
          "type": "uint256"
        }
      ],
      "name": "fr",
      "outputs": [
        {
          "name": "fracoId",
          "type": "uint256"
        },
        {
          "name": "validFrom",
          "type": "string"
        },
        {
          "name": "validTill",
          "type": "string"
        },
        {
          "name": "lands",
          "type": "bytes"
        },
        {
          "name": "resource",
          "type": "string"
        },
        {
          "name": "status",
          "type": "string"
        }
      ],
      "payable": false,
      "stateMutability": "view",
      "type": "function"
    },
    {
      "inputs": [],
      "payable": false,
      "stateMutability": "nonpayable",
      "type": "constructor"
    },
    {
      "anonymous": false,
      "inputs": [
        {
          "indexed": true,
          "name": "_candidateId",
          "type": "uint256"
        }
      ],
      "name": "votedEvent",
      "type": "event"
    },
    {
      "constant": false,
      "inputs": [
        {
          "name": "_name",
          "type": "string"
        },
        {
          "name": "_loc",
          "type": "string"
        },
        {
          "name": "land",
          "type": "bytes32[]"
        },
        {
          "name": "_number",
          "type": "string"
        },
        {
          "name": "_aadhar",
          "type": "string"
        },
        {
          "name": "_accountAddress",
          "type": "string"
        }
      ],
      "name": "addCandidate",
      "outputs": [],
      "payable": false,
      "stateMutability": "nonpayable",
      "type": "function"
    },
    {
      "constant": false,
      "inputs": [
        {
          "name": "_name",
          "type": "string"
        },
        {
          "name": "totalArea",
          "type": "uint256"
        },
        {
          "name": "farmingArea",
          "type": "uint256"
        },
        {
          "name": "_ownerId",
          "type": "string"
        }
      ],
      "name": "landreg",
      "outputs": [],
      "payable": false,
      "stateMutability": "nonpayable",
      "type": "function"
    },
    {
      "constant": false,
      "inputs": [
        {
          "name": "_fracname",
          "type": "string"
        },
        {
          "name": "_creatorId",
          "type": "string"
        },
        {
          "name": "_validFrom",
          "type": "string"
        },
        {
          "name": "_validTill",
          "type": "string"
        },
        {
          "name": "_lands2",
          "type": "string"
        },
        {
          "name": "_resource",
          "type": "string"
        },
        {
          "name": "_status",
          "type": "string"
        }
      ],
      "name": "produceFraco",
      "outputs": [],
      "payable": false,
      "stateMutability": "nonpayable",
      "type": "function"
    },
    {
      "constant": false,
      "inputs": [
        {
          "name": "_validFrom",
          "type": "string"
        },
        {
          "name": "_validTill",
          "type": "string"
        },
        {
          "name": "_lands2",
          "type": "string"
        },
        {
          "name": "_resource",
          "type": "string"
        },
        {
          "name": "_status",
          "type": "string"
        }
      ],
      "name": "produceFracoResource",
      "outputs": [],
      "payable": false,
      "stateMutability": "nonpayable",
      "type": "function"
    }
  ],
  "bytecode": "0x60806040526001600055600180556001600255600160035534801561002357600080fd5b50611ed9806100336000396000f3006080604052600436106100f05763ffffffff7c01000000000000000000000000000000000000000000000000000000006000350416630a70e92a81146100f55780631329333214610258578063273f563f146104875780632d35a8a21461052d5780633477ee2e146105545780633d50cf361461056c5780636baf6677146106dd57806388ca9ddd146106f2578063a2c687d914610707578063a3ec138d1461071f578063a8db8f2c14610761578063ab0601d6146108eb578063abf27cf614610ab8578063b3de648b14610acd578063bff1f9e114610ae5578063c80cec9814610afa578063dc0e4e1614610b12575b600080fd5b34801561010157600080fd5b5061010d600435610c63565b60405180858152602001806020018060200180602001848103845287818151815260200191508051906020019080838360005b83811015610158578181015183820152602001610140565b50505050905090810190601f1680156101855780820380516001836020036101000a031916815260200191505b50848103835286518152865160209182019188019080838360005b838110156101b85781810151838201526020016101a0565b50505050905090810190601f1680156101e55780820380516001836020036101000a031916815260200191505b50848103825285518152855160209182019187019080838360005b83811015610218578181015183820152602001610200565b50505050905090810190601f1680156102455780820380516001836020036101000a031916815260200191505b5097505050505050505060405180910390f35b34801561026457600080fd5b50610270600435610e2c565b60405180878152602001806020018060200180602001806020018060200186810386528b818151815260200191508051906020019080838360005b838110156102c35781810151838201526020016102ab565b50505050905090810190601f1680156102f05780820380516001836020036101000a031916815260200191505b5086810385528a5181528a516020918201918c019080838360005b8381101561032357818101518382015260200161030b565b50505050905090810190601f1680156103505780820380516001836020036101000a031916815260200191505b5086810384528951815289516020918201918b019080838360005b8381101561038357818101518382015260200161036b565b50505050905090810190601f1680156103b05780820380516001836020036101000a031916815260200191505b5086810383528851815288516020918201918a019080838360005b838110156103e35781810151838201526020016103cb565b50505050905090810190601f1680156104105780820380516001836020036101000a031916815260200191505b50868103825287518152875160209182019189019080838360005b8381101561044357818101518382015260200161042b565b50505050905090810190601f1680156104705780820380516001836020036101000a031916815260200191505b509b50505050505050505050505060405180910390f35b34801561049357600080fd5b506040805160206004803580820135601f810184900484028501840190955284845261052b94369492936024939284019190819084018382808284375050604080516020888301358a018035601f8101839004830284018301909452838352979a89359a8a8301359a919990985060609091019650919450908101925081908401838280828437509497506111159650505050505050565b005b34801561053957600080fd5b506105426112d5565b60408051918252519081900360200190f35b34801561056057600080fd5b506102706004356112db565b34801561057857600080fd5b5061058460043561158f565b60405180878152602001806020018681526020018581526020018060200180602001848103845289818151815260200191508051906020019080838360005b838110156105db5781810151838201526020016105c3565b50505050905090810190601f1680156106085780820380516001836020036101000a031916815260200191505b50848103835286518152865160209182019188019080838360005b8381101561063b578181015183820152602001610623565b50505050905090810190601f1680156106685780820380516001836020036101000a031916815260200191505b50848103825285518152855160209182019187019080838360005b8381101561069b578181015183820152602001610683565b50505050905090810190601f1680156106c85780820380516001836020036101000a031916815260200191505b50995050505050505050505060405180910390f35b3480156106e957600080fd5b506105426116ab565b3480156106fe57600080fd5b506105426116b1565b34801561071357600080fd5b506105846004356116b7565b34801561072b57600080fd5b5061074d73ffffffffffffffffffffffffffffffffffffffff6004351661174c565b604080519115158252519081900360200190f35b34801561076d57600080fd5b506040805160206004803580820135601f810184900484028501840190955284845261052b94369492936024939284019190819084018382808284375050604080516020601f89358b018035918201839004830284018301909452808352979a999881019791965091820194509250829150840183828082843750506040805187358901803560208181028481018201909552818452989b9a99890198929750908201955093508392508501908490808284375050604080516020601f89358b018035918201839004830284018301909452808352979a99988101979196509182019450925082915084018382808284375050604080516020601f89358b018035918201839004830284018301909452808352979a99988101979196509182019450925082915084018382808284375050604080516020601f89358b018035918201839004830284018301909452808352979a9998810197919650918201945092508291508401838280828437509497506117619650505050505050565b3480156108f757600080fd5b506040805160206004803580820135601f810184900484028501840190955284845261052b94369492936024939284019190819084018382808284375050604080516020601f89358b018035918201839004830284018301909452808352979a99988101979196509182019450925082915084018382808284375050604080516020601f89358b018035918201839004830284018301909452808352979a99988101979196509182019450925082915084018382808284375050604080516020601f89358b018035918201839004830284018301909452808352979a99988101979196509182019450925082915084018382808284375050604080516020601f89358b018035918201839004830284018301909452808352979a99988101979196509182019450925082915084018382808284375050604080516020601f89358b018035918201839004830284018301909452808352979a99988101979196509182019450925082915084018382808284375050604080516020601f89358b018035918201839004830284018301909452808352979a9998810197919650918201945092508291508401838280828437509497506118659650505050505050565b348015610ac457600080fd5b506105426119ff565b348015610ad957600080fd5b5061010d600435611a05565b348015610af157600080fd5b50610542611a9a565b348015610b0657600080fd5b50610270600435611aa0565b348015610b1e57600080fd5b506040805160206004803580820135601f810184900484028501840190955284845261052b94369492936024939284019190819084018382808284375050604080516020601f89358b018035918201839004830284018301909452808352979a99988101979196509182019450925082915084018382808284375050604080516020601f89358b018035918201839004830284018301909452808352979a99988101979196509182019450925082915084018382808284375050604080516020601f89358b018035918201839004830284018301909452808352979a99988101979196509182019450925082915084018382808284375050604080516020601f89358b018035918201839004830284018301909452808352979a999881019791965091820194509250829150840183828082843750949750611b359650505050505050565b6009602090815260009182526040918290208054600180830180548651600293821615610100026000190190911692909204601f810186900486028301860190965285825291949293909290830182828015610d005780601f10610cd557610100808354040283529160200191610d00565b820191906000526020600020905b815481529060010190602001808311610ce357829003601f168201915b50505060028085018054604080516020601f6000196101006001871615020190941695909504928301859004850281018501909152818152959695945090925090830182828015610d925780601f10610d6757610100808354040283529160200191610d92565b820191906000526020600020905b815481529060010190602001808311610d7557829003601f168201915b5050505060038301805460408051602060026001851615610100026000190190941693909304601f8101849004840282018401909252818152949594935090830182828015610e225780601f10610df757610100808354040283529160200191610e22565b820191906000526020600020905b815481529060010190602001808311610e0557829003601f168201915b5050505050905084565b600b602090815260009182526040918290208054600180830180548651600293821615610100026000190190911692909204601f810186900486028301860190965285825291949293909290830182828015610ec95780601f10610e9e57610100808354040283529160200191610ec9565b820191906000526020600020905b815481529060010190602001808311610eac57829003601f168201915b50505060028085018054604080516020601f6000196101006001871615020190941695909504928301859004850281018501909152818152959695945090925090830182828015610f5b5780601f10610f3057610100808354040283529160200191610f5b565b820191906000526020600020905b815481529060010190602001808311610f3e57829003601f168201915b5050505060038301805460408051602060026001851615610100026000190190941693909304601f8101849004840282018401909252818152949594935090830182828015610feb5780601f10610fc057610100808354040283529160200191610feb565b820191906000526020600020905b815481529060010190602001808311610fce57829003601f168201915b5050505060048301805460408051602060026001851615610100026000190190941693909304601f810184900484028201840190925281815294959493509083018282801561107b5780601f106110505761010080835404028352916020019161107b565b820191906000526020600020905b81548152906001019060200180831161105e57829003601f168201915b5050505060058301805460408051602060026001851615610100026000190190941693909304601f810184900484028201840190925281815294959493509083018282801561110b5780601f106110e05761010080835404028352916020019161110b565b820191906000526020600020905b8154815290600101906020018083116110ee57829003601f168201915b5050505050905086565b61111d611d3e565b506040805160c081018252600180548083526020808401898152848601899052606085018890528551808701875260078082527f667261636f49640000000000000000000000000000000000000000000000000082850152608087019190915260a08601889052600093845282529490912083518155935180519394859490936111ac93908501920190611d75565b506040820151600282015560608201516003820155608082015180516111dc916004840191602090910190611d75565b5060a082015180516111f8916005840191602090910190611d75565b50506008805460018101808355600092909252835160069091027ff3f7a9fe364faab93b216da50a3214154f22a0a2b415b23a84c8169e8b636ee3810191825560208086015180519495508694611276937ff3f7a9fe364faab93b216da50a3214154f22a0a2b415b23a84c8169e8b636ee401929190910190611d75565b506040820151600282015560608201516003820155608082015180516112a6916004840191602090910190611d75565b5060a082015180516112c2916005840191602090910190611d75565b5050600180548101905550505050505050565b60065481565b6005602090815260009182526040918290208054600180830180548651600293821615610100026000190190911692909204601f8101869004860283018601909652858252919492939092908301828280156113785780601f1061134d57610100808354040283529160200191611378565b820191906000526020600020905b81548152906001019060200180831161135b57829003601f168201915b50505060028085018054604080516020601f600019610100600187161502019094169590950492830185900485028101850190915281815295969594509092509083018282801561140a5780601f106113df5761010080835404028352916020019161140a565b820191906000526020600020905b8154815290600101906020018083116113ed57829003601f168201915b5050505060048301805460408051602060026001851615610100026000190190941693909304601f810184900484028201840190925281815294959493509083018282801561149a5780601f1061146f5761010080835404028352916020019161149a565b820191906000526020600020905b81548152906001019060200180831161147d57829003601f168201915b5050505060058301805460408051602060026001851615610100026000190190941693909304601f810184900484028201840190925281815294959493509083018282801561152a5780601f106114ff5761010080835404028352916020019161152a565b820191906000526020600020905b81548152906001019060200180831161150d57829003601f168201915b5050505060068301805460408051602060026001851615610100026000190190941693909304601f810184900484028201840190925281815294959493509083018282801561110b5780601f106110e05761010080835404028352916020019161110b565b6007602090815260009182526040918290208054600180830180548651600293821615610100026000190190911692909204601f81018690048602830186019096528582529194929390929083018282801561162c5780601f106116015761010080835404028352916020019161162c565b820191906000526020600020905b81548152906001019060200180831161160f57829003601f168201915b505050505090806002015490806003015490806004018054600181600116156101000203166002900480601f01602080910402602001604051908101604052809291908181526020018280546001816001161561010002031660029004801561107b5780601f106110505761010080835404028352916020019161107b565b60015481565b60025481565b60088054829081106116c557fe5b9060005260206000209060060201600091509050806000015490806001018054600181600116156101000203166002900480601f01602080910402602001604051908101604052809291908181526020018280546001816001161561010002031660029004801561162c5780601f106116015761010080835404028352916020019161162c565b60046020526000908152604090205460ff1681565b600680546001908101918290556040805160e08101825283815260208082018b81528284018b9052606083018a90526080830189905260a0830188905260c08301879052600095865260058252929094208151815591518051919492936117ce9390850192910190611d75565b50604082015180516117ea916002840191602090910190611d75565b5060608201518051611806916003840191602090910190611df3565b5060808201518051611822916004840191602090910190611d75565b5060a0820151805161183e916005840191602090910190611d75565b5060c0820151805161185a916006840191602090910190611d75565b505050505050505050565b61186d611e30565b506040805160808101825260025480825260208083018b81528385018b905284518086018652600381527f70696400000000000000000000000000000000000000000000000000000000008184015260608501526000928352600982529390912082518155925180519293849390926118ed926001850192910190611d75565b5060408201518051611909916002840191602090910190611d75565b5060608201518051611925916003840191602090910190611d75565b5050600a805460018101808355600092909252835160049091027fc65a7bb8d6351c1cf70c95a316cc6a92839c986682d98bc35f958f4883f9d2a88101918255602080860151805194955086946119a3937fc65a7bb8d6351c1cf70c95a316cc6a92839c986682d98bc35f958f4883f9d2a901929190910190611d75565b50604082015180516119bf916002840191602090910190611d75565b50606082015180516119db916003840191602090910190611d75565b505050506119ec8686868686611b35565b5050600280546001019055505050505050565b60035481565b600a805482908110611a1357fe5b9060005260206000209060040201600091509050806000015490806001018054600181600116156101000203166002900480601f016020809104026020016040519081016040528092919081815260200182805460018160011615610100020316600290048015610d005780601f10610cd557610100808354040283529160200191610d00565b60005481565b600c805482908110611aae57fe5b9060005260206000209060060201600091509050806000015490806001018054600181600116156101000203166002900480601f016020809104026020016040519081016040528092919081815260200182805460018160011615610100020316600290048015610ec95780601f10610e9e57610100808354040283529160200191610ec9565b611b3d611e59565b506040805160c0810182526003548082526020808301898152838501899052606084018890526080840187905284518086018652600981527f496e6974696174656400000000000000000000000000000000000000000000008184015260a08501526000928352600b8252939091208251815592518051929384939092611bcb926001850192910190611d75565b5060408201518051611be7916002840191602090910190611d75565b5060608201518051611c03916003840191602090910190611d75565b5060808201518051611c1f916004840191602090910190611d75565b5060a08201518051611c3b916005840191602090910190611d75565b5050600c805460018101808355600092909252835160069091027fdf6966c971051c3d54ec59162606531493a51404a002842f56009d7e5cf4a8c7810191825560208086015180519495508694611cb9937fdf6966c971051c3d54ec59162606531493a51404a002842f56009d7e5cf4a8c801929190910190611d75565b5060408201518051611cd5916002840191602090910190611d75565b5060608201518051611cf1916003840191602090910190611d75565b5060808201518051611d0d916004840191602090910190611d75565b5060a08201518051611d29916005840191602090910190611d75565b50506003805460010190555050505050505050565b60c0604051908101604052806000815260200160608152602001600081526020016000815260200160608152602001606081525090565b828054600181600116156101000203166002900490600052602060002090601f016020900481019282601f10611db657805160ff1916838001178555611de3565b82800160010185558215611de3579182015b82811115611de3578251825591602001919060010190611dc8565b50611def929150611e90565b5090565b828054828255906000526020600020908101928215611de3579160200282015b82811115611de35782518255602090920191600190910190611e13565b608060405190810160405280600081526020016060815260200160608152602001606081525090565b60c0604051908101604052806000815260200160608152602001606081526020016060815260200160608152602001606081525090565b611eaa91905b80821115611def5760008155600101611e96565b905600a165627a7a723058202bd14b02ac52f6e7ef50bbffc50f6e3fb8453b2e0efe42e1a69210a5b77aca510029",
  "source": "pragma solidity 0.4.25;\n\ncontract election {\n    uint256 public totalUsers = 1; \n    uint256 public totalLand = 1; \n    uint256 public totalfraco = 1; \n        uint256 public totalfracoresc = 1; \n\n    // Model a Candidate\n    struct Candidate {\n        uint fid;\n        string fname;\n        string loc;\n        bytes32[] lands;\n        string contact;\n        string aadhar;\n        bytes accountAddress;\n    }\n    struct land_registration\n    {\n        uint landId;\n        string name;\n        uint256 totalArea;\n        uint256 farmingArea;\n        bytes fracoId;\n        bytes ownerId;\n    }\n    struct fracos\n    {\n        uint fracoId;\n        string fracname;\n        bytes creatorId;\n        bytes partnerId;\n\n    }\n\n     struct fracosres\n    {\n        uint fracoId;\n        string validFrom;\n        string validTill;\n        bytes lands;\n        string resource;\n        string status;\n    }\n\n    // Store accounts that have voted\n    mapping(address => bool) public voters;\n    // Store Candidates\n    // Fetch Candidate\n    mapping(uint => Candidate) public candidates;\n    // Store Candidates Count\n    uint public candidatesCount;\n\n    // voted event\n    event votedEvent (\n        uint indexed _candidateId\n    );\n\n    constructor () public {\n        //addCandidate(\"breakingbaid\");\n        //addCandidate(\"Hendricks\");\n        //addCandidate(\"Fridge\");\n    }\n\n    function addCandidate (string _name, string _loc , bytes32[] land,string _number , string _aadhar, string _accountAddress) public {\n        candidatesCount ++;\n        candidates[candidatesCount] = Candidate(candidatesCount, _name, _loc,land,_number,_aadhar,bytes(_accountAddress));\n    }\n\n    mapping (uint => land_registration) public l1;\n    \n    land_registration[] public lm;\n    \n    function landreg(string _name, uint256 totalArea, uint256 farmingArea, string _ownerId) {\n        var lnew = land_registration(totalLand,_name,totalArea,farmingArea,\"fracoId\",bytes(_ownerId));\n        l1[totalLand] = lnew;\n        lm.push(lnew);\n        totalLand++; \n\n    }\n\nmapping (uint => fracos) public fracos1;\nfracos[] public f;\nfunction produceFraco(string _fracname, string _creatorId, string _validFrom,string _validTill, string _lands2, string _resource, string _status) \n{\n    \n        var frnew = fracos(totalfraco,_fracname,bytes(_creatorId),\"pid\");\n        fracos1[totalfraco] = frnew;\n        f.push(frnew);\n        produceFracoResource(_validFrom,_validTill, _lands2, _resource, _status);\n        totalfraco++; \n\n}\n\nmapping (uint => fracosres) public fracosres1;\nfracosres[] public fr;\nfunction produceFracoResource(string _validFrom,string _validTill, string _lands2, string _resource, string _status) \n{\n    \n        var frnew = fracosres(totalfracoresc,_validFrom,_validTill,bytes(_lands2),_resource,\"Initiated\");\n        fracosres1[totalfracoresc] = frnew;\n        fr.push(frnew);\n        totalfracoresc++;\n\n}\n   \n\n}",
  "sourcePath": "/Users/dhanyabaid/Desktop/Blockchain/elections/contracts/election.sol",
  "compiler": {
    "name": "solc",
    "version": "0.4.25+commit.59dbf8f1.Emscripten.clang"
  },
  "schemaVersion": "2.0.2",
  "updatedAt": "2019-03-29T08:13:33.234Z"
}